S0200000706F735F657374696D61746F725F6672646D2D6B6C32357A2E737265638E
S21400000000300020E9040000F9040000F9040000B4
S21400001000000000000000000000000000000000DB
S214000020000000000000000000000000F9040000CE
S2140000300000000000000000F9040000F9040000C1
S214000040F9040000F9040000F9040000F9040000B7
S214000050F9040000F9040000F9040000F9040000A7
S214000060519200005B9200009D920000A792000053
S214000070F9040000B1920000BB920000F9040000F1
S214000080F9040000F9040000F9040000F904000077
S214000090F9040000F9040000F9040000F904000067
S2140000A0F9040000F9040000F9040000F904000057
S2140000B0F9040000F9040000F9040000F904000047
S214000400FFFFFFFFFFFFFFFFFFFFFFFFFEFFFFFFF8
S21400041010B5064C2378002B07D1054B002B02D0D5
S214000420044800E000BF0123237010BD0CF1FF1F3D
S214000430000000004CA8010008B5084B002B03D0B4
S2140004400748084900E000BF07480368002B03D0B0
S214000450064B002B00D0984708BDC04600000000A1
S2140004604CA8010010F1FF1F08F1FF1F000000005C
S214000470164B002B00D1144B9D46402292029A1A2E
S214000480924600218B460F461348144A121A12F061
S2140004909DFD0F4B002B00D098470E4B002B00D035
S2140004A098470020002104000D000D48002802D0C7
S2140004B00C4800E000BF12F037FD200029000CF0C9
S2140004C0E3F912F0A9FCC046000008000030002046
S2140004D000000000000000000CF1FF1FD4F5FF1F15
S2140004E0000000000000000072B60CF00FFB0CF0DD
S2140004F0CFFA62B6FFF7BCFF00480047F9040000D9
S214000500F0B54B291DD8104D8C002C59A746002A53
S21400051017D0456984690026A5420CDA6C00641978
S2140005200769A40001353C194561002C03D02170F1
S2140005306260A360261C301CF0BD002A01D0002B90
S214000540E7D10026F7E7C046106B010030B54369D7
S2140005508469A3420CDA5C00E4180569A400013340
S2140005602C194361002C03D0002901D0002A01D1A8
S214000570002030BD002323706160A260201CF8E7D5
S214000580F8B5041CC0680F1C161C03780D1C17E079
S214000590562B2AD04B2B2FD10130E0601B21002E8A
S2140005A000D01E21236B201C063323630022002369
S2140005B0FFF7A6FF2860002815D0051DE068037821
S2140005C0722BE5D10130E0601921002E00D01C21ED
S2140005D0236B201C0933236300220023FFF790FFC0
S2140005E028600028E9D10020F8BD0130E0601A211B
S2140005F0002EEDD01D21EBE7281C002EF4D1462B53
S214000600F2D1BD4211D01D201E211C2207E01B2B5B
S2140006100DD0192B00D13A700437BD4209D03F687F
S2140006203B781A2BF3D13870F6E7381CDCE73970C4
S214000630F2E7281CD8E7C04608B5031CC0680A1CA9
S214000640017852290FD04F2901D0101C08BD196B14
S2140006500331196320210130D860181C0023FFF7EE
S2140006604FFF021CF1E7196B023119631F21F2E7F5
S214000670F8B50F1CC168061C0C780B1C2E2C22D05B
S2140006802E2C12D15C78303C092C0ED89C789A1C03
S214000690231C303B092B14D8131C01331C78251C53
S2140006A0303D092DF9D92E2CECD05A1AF360301CA7
S2140006B0FFF74CFF3A1C031C4B21301CFFF720FFB2
S2140006C0F8BD131CDCE74B781A1C613A192A09D8C6
S2140006D08B1C1C78221C613A192A01D95F2CCFD1B9
S2140006E00133F6E75F2BF3D00B1C2E24C8E7C04679
S2140006F0F0B54F464646C0B4C3681A78532A04D0AD
S21400070000200CBC90469946F0BD5A1CC2605A7830
S214000710002A0FD09A1CC2605B7800225F2B1BD188
S214000720016A8A42ECD2836A920001338362C3690B
S214000730D058E6E7002382680125120702D4002578
S214000740002936D1414A141CC4341178994238D055
S2140007501C32A242F9D1D3E71C1C303CE2B2092A73
S2140007606ED8002213E0D10089188900CB18191C16
S21400077030398A42C4D8C3681A78002A15D05A1C61
S214000780C2601B785F2B12D01C1C0A1C303CE1B2E6
S2140007900929E8D9191C41391929B1D8D100891875
S2140007A08900CB18191C3739E3E70023ECE74A1C0D
S2140007B0B6E7C46801212278433AD2B291426D412D
S2140007C0C0E75669002E38D09769436984690021CE
S2140007D0BC468846A34210DA5900C9180769890042
S2140007E08946391C013349444361002905D018273E
S2140007F04E6066460F708E6088464746C762002D7C
S21400080018D0D5681169066B72180263A34200DB24
S21400081076E75A00D218076992000133BA18436186
S2140008200020002A00D16CE71823137055609160F1
S214000830101C66E755689168E5E784694369DEE75A
S2140008401A1C413A192A8CD975E7C046F87301007C
S21400085038B580235B00C358041C0D1CFF2B08D042
S214000860591C80225200A150E55482235B00E554B7
S21400087038BD0022C25486235B00C25884235B0026
S214000880C358FF21984790235B00E25801210132AC
S214000890E2500023E5E7C04630B50368041C1A782A
S2140008A000256E2A17D0131C303B092B18D8236856
S2140008B0002001338100091849008A182360101CA3
S2140008C01A783038111C303901330929F2D9002D35
S2140008D000D0404230BD5A1C02605A780125E2E73B
S2140008E00020F4E74369826910B5934210DA5C0091
S2140008F0E4180269A400013314194361002C07D0E0
S214000900402323700C30FFF7C7FF6060201C10BD2B
S2140009100020FCE710B5C368041C1A785F2A0CD0C8
S2140009206E2A07D00C30FFF7B7FFE36801301A785D
S2140009305F2A03D00120404210BD00200133E3604F
S214000940FAE7C04610B5C368041C1A78542A01D0CA
S214000950002010BD0133C360FFF7DCFF011EF7DB8C
S214000960A36A6269A0690133A3628242F0DA530087
S2140009709B1820699B00C318013262610020002B7F
S214000980E7D005221A705960181CE2E708B5C2685D
S214000990012311785F2901D0181C08BD0132C260FE
S2140009A00C30FFF779FFC343DB0FF5E770B5041C87
S2140009B00C30FFF771FF051E33DDE6686268931B97
S2140009C0984230DCA2683318E360520716D4092D2B
S2140009D00DDD301C1549082212F0E0FA002806D179
S2140009E0337A2E2B10D05F2B0ED0242B0CD0201C4D
S2140009F0311C2A1CFFF7AAFDE06270BD1A78242A73
S214000A00E5D10133E360E2E7737A4E2BEFD1236B37
S214000A10201C16335D1B256305491522FFF796FD3E
S214000A20EAE70020E9E70020E6E7C046289B010049
S214000A30349B010038B5041C002908D1C3681A7815
S214000A40002A01D1002038BD5A1CC26019786829D6
S214000A5010D07629F6D1251C0C35281CFFF71CFF74
S214000A60E3681A785F2AEDD10133E360281CFFF7AC
S214000A7013FF03E0201C0C30FFF70EFFE368002096
S214000A801A785F2ADFD10133E3600120DBE7C04636
S214000A9088235B00C358002B1AD05B680A689B68E3
S214000AA0002B0ED019782F290BD1002A05DC0AE07E
S214000AB019782F2905D1002A08D09B68013A002B07
S214000AC0F6D1002070470020002AFBD15868F9E7CD
S214000AD08C2301225B00C2500020F3E770B5061C91
S214000AE00C1E0FD00D4D23784A2B02D89B00EB58D6
S214000AF09F46301C6168FFF7F1FF002803D1A46809
S214000B00002CF0D1002070BD211D301CFFF7C0FF67
S214000B100028F7D003782F2BF5D0F3E7406C0100C0
S214000B20F0B553689468013347465B1880B40E1CD2
S214000B30071C151CA34214D8EC68002C02D004BC79
S214000B409046F0BD2B686A68391C9818321C12F063
S214000B5034FA2A6893196A689C546B689E196E600A
S214000B60EDE7D268002AEAD1002C02D10224022B3B
S214000B7002D96400A342FCD82868211C12F0D8FAD7
S214000B808046002803D042462A60AC60D4E7286836
S214000B9012F0FAF943462B606B60AB600123EB6002
S214000BA0CDE7C046F8B5C368051C1A784C2A01D0B4
S214000BB00020F8BD5A1CC26059785F2936D05A29E1
S214000BC00CD10132EA60281C002100F073FDEA68AF
S214000BD01378452BECD10132EA60EAE700F000FA20
S214000BE0061EE5D00378272B2FD0E9683B270B7825
S214000BF06E2B24D0452B31D0002BD9D04B1C02E0D5
S214000C000133002CD4D0EB601C78452CF8D15A1A4E
S214000C10281CFFF79BFC321C031C391C281CFFF702
S214000C206FFCEA681378452BC2D1D4E79A1CC260E1
S214000C309B785A2BC5D00020452BB9D1CBE74A1C50
S214000C40EA604B783C27111CD4E743681A7C002ADC
S214000C50CBD05B682A6BD31A2B63C6E70022D7E794
S214000C6070B5C16882B00B78041C493BC66A012B7C
S214000C702DD84A1CC2604B78452B3ED000210191EE
S214000C8001AD16E0493B012B28D8201CFFF7E8FFF2
S214000C90021C002A1BD0201C2F210023FFF730FC4B
S214000CA02860002813D0E268051C13780835452B09
S214000CB01ED04C2B17D0E5D9582B0FD10132E2604D
S214000CC0201C01F0A3F8E3681978452902D000201B
S214000CD002B070BD0133E360021CDAE7201C00F0AE
S214000CE07FF9021CD5E7201CFFF75CFF021CD0E74B
S214000CF00132E260E6620198EAE70231C160002252
S214000D002F210023FFF7FCFBE2E7C046F0B547467D
S214000D1080B4C26882B01378051C4C3BDBB20E2B45
S214000D2000D96CE0AB499B00CB589F4601320021AE
S214000D30C26000F0BFFCEB68071C1978452900D19B
S214000D40E0E000241AE05378742B00D176E000210E
S214000D50FFF7CEFCEA68061C1378041C492B0DD15D
S214000D60281CFFF77DFF0421031C321C281CFFF7FC
S214000D70C7FB041C02E000F007FF041C201C02B0A6
S214000D8004BC9046F0BD0132C26001A90122FFF703
S214000D90F7FB071ED5D0281C0021FFF74DFCEB689B
S214000DA080461C780026002C25D0442C00D18FE0ED
S214000DB0221C303A092A69D9313A192A66D9432CB5
S214000DC064D0552C62D04C2C60D0532C00D193E0CC
S214000DD0492C00D188E0542C00D1C1E0452C00D12C
S214000DE0E4E04D2C07D1002E05D05A1CEA605C7852
S214000DF0131C002CD9D100233B600024BEE7281C1E
S214000E0000F0C2FEEA68041C1378492BB6D100280D
S214000E1097D02B6A696A8B4200DB92E7E9699A00F1
S214000E20013350502B62281CFFF71AFF221C031CAC
S214000E300421281CFFF764FB041C9FE70232664966
S214000E40C2600322FFF782FB041C281C00F09CFEF5
S214000E500121031C221C281CFFF752FB2B6BE968A0
S214000E6003332B630B78061C041C492B00D085E744
S214000E70002800D165E72B6A6A6A934200DB60E7C8
S214000E80E9699A00013350502B6269E7281C00F08C
S214000E907BFE031C002E19D00121321C281CFFF7F4
S214000EA02FFB061C532C0ED0EB681A78452A19D057
S214000EB0002EA0D02B6A696A8B429CDAE9699A00F8
S214000EC0013356502B62EB681C786CE71E1CE9E772
S214000ED05B7820229343542BD8D1281C00F080F84E
S214000EE0031CD7E7452463E7002E84D0281CFFF7B1
S214000EF0B7FE0421031CD0E7281C0121FFF7F8FBEE
S214000F00031CC7E75A1CEA605A78732A3FD0642A43
S214000F102BD001267642281CFFF7F8FE041E04D0CC
S214000F200378442B01D0462B2AD1711C26D06A693F
S214000F30A96900238A420CDA53009B1829699B0092
S214000F400132CB186A61002B03D045221A709E60CE
S214000F505C60281C02213A1CFFF7D2FA041C0DE73D
S214000F60281CFFF7EFFC031C94E70233EB60281CF9
S214000F70FFF7D0FC061ECEDA0024FFE6231CE8E7C7
S214000F80281CFFF703FD0028CFD10024F6E6023325
S214000F90EB60281CFFF7FAFC002800D1D1E6281CDD
S214000FA00E490E22FFF7D2FA031CD2E73E60002E4F
S214000FB000D1C6E64246002A02D0019B0192536049
S214000FC0EB681A78452A00D0BBE60133EB60019C3B
S214000FD0D4E6C0466C6D01005C9B01004C9B010092
S214000FE0F0B5C26883B01378041C722B0CD0562B55
S214000FF00AD04B2B08D0191C3039C9B24A2937D829
S214001000C048890041588F46201C01A90022FFF7DE
S214001010B7FA051E2CD0201CFFF7E2FF2860002838
S21400102026D002781F3A012A25D9019A002A1FD015
S214001030236A656AAB421BDAE06999000A500133FD
S2140010402362019815E0201C00F0E0FE4121021CFE
S2140010500023201CFFF754FA0190002808D0E3680C
S2140010601A78002A04D05A1CE2601B78452B1AD046
S214001070002003B0F0BD0199426841602B680193DF
S2140010802A60019A002AD3D1F2E70132E260201CDE
S214001090FFF78CFC2821021C0023201CFFF730FAE7
S2140010A001900028E4D0236A656AAB42E0DAE16981
S2140010B09A005050013323620198DAE7201CFFF7AC
S2140010C025FE0190EDE7511CE16053785F2B00D1BF
S2140010D02DE2303B092B00D93AE20A1C0132E260CD
S2140010E01378303B092BF9D9521A201CFFF72EFA39
S2140010F0051E04D0E1680B785F2B00D118E20020B3
S2140011000190CEE70132E260201CFFF769FF25213F
S214001110021C0023201CFFF7F3F90190C1E7531CC3
S214001120E3605378592B00D10FE20121201C00F018
S214001130A3FA011C201CFFF77FFAE368011C1A784B
S2140011400020452ABDD10133081CE3600190A8E7C2
S2140011500132E260201CFFF743FF2621021C002319
S214001160201CFFF7CDF901909BE7531CE3605378F2
S214001170002B00D17CE7931CE3605378463BDBB240
S214001180302B00D974E760499B00CB589F4601324C
S214001190E260201CFFF724FF01AE071C311C201C58
S2140011A00122FFF7EDF9051EA9D0201CFFF718FF56
S2140011B028600028A3D0B54213D001780A1C1F3A35
S2140011C0012A00D8CCE129290BD0019A002A96D012
S2140011D0236A616A8B4292DAE569990001334A51C3
S2140011E02362201C2B213A1C019BFFF789F90190F2
S2140011F057E70132E260201CFFF7F2FE2221021CB4
S2140012000023201CFFF77CF901904AE70132E260D8
S214001210201CFFF7E5FE2321021C0023201CFFF7FD
S2140012206FF901903DE70132E260201CFFF7D8FE1F
S2140012302421021C0023201CFFF762F9019030E7EE
S21400124053781A1C303A092A05D95F2B03D0413B44
S214001250192B00D990E1201C0021FFF749FA051C44
S2140012600190E0680378281C492B00D001E7201C79
S214001270FFF7F6FC0421031C2A1C201CFFF740F98C
S21400128001900EE7201CFFF75DFBE16801900B78EC
S214001290492B00D005E7002800D1E9E6236A626AF8
S2140012A0934200DBE4E6E5699A005051013323627D
S2140012B0019DDCE70132E260201CFFF777FB01901E
S2140012C0201CFFF78DFE2121021C019B201CFFF72E
S2140012D017F90190E5E6613B9900CB180B499B0096
S2140012E04431C918A5696369AB4200DA12E10023EC
S2140012F0596800204B68216B0132CB182363E260EB
S214001300B7E6C046A86D0100D46E010078740100EF
S2140013106369A069834200DB2AE15800C01821698E
S2140013208000013308186361002800D158E12723A4
S2140013300370AC22AB4B92009B1843605B68256B36
S214001340EB18236395E66369A069834200DB0FE12F
S2140013505800C0182169800001330818636100280E
S21400136000D13DE127230370A2229E4B92009B18DA
S2140013704360E3E793785F2B00D124E1201CFFF75E
S214001380B1FA051C002D00D1B9E6E36800201A78F2
S2140013905F2A00D095E60133E360201CFFF720FEAD
S2140013A02D21031C2A1C201CFFF7AAF8019078E6C2
S2140013B06369A069834200DBDAE05800C01821693F
S2140013C08000013308186361002800D108E1272354
S2140013D00370A722834B92009B184360AEE76369B5
S2140013E0A269934200DBD3E05800C018256980004C
S2140013F0013328186361002800D1EDE0272303702D
S2140014009821784B89005B1843605B68226BD31881
S21400141023632EE6201C74490422FFF797F828E67B
S2140014206369A0690025834206DA5D00ED1821692C
S214001430AD00013363614D192C2301952B70927812
S2140014400023303AD2B2092191425B419BB22B81F4
S214001450002B00D0B1E0201CFFF7C2FD6860019BA6
S2140014605B68002B00D103E6201C0C30FFF714FA53
S214001470E36800221978002906D05A1CE2601A7820
S214001480733A53425A4192B201984281F1E5636938
S214001490A1698B4200DA7FE000235B6800205B686E
S2140014A0216BCB182363E4E56369A569AB425FDA79
S2140014B05800C018216980000133081863610028AD
S2140014C000D18DE0272303709D22464B92009B1887
S2140014D0436033E7201CFFF783FD4921021C0023ED
S2140014E0201CFFF70DF80190DBE56369A2699342C3
S2140014F04EDA5800C0182569800001332818636149
S214001500002869D027230370B121364B89005B1869
S21400151043607AE75800C018256980000133281810
S214001520636100285AD0272303704160E2E6002555
S2140015300131E160201CFFF753FD2A21031C2A1C01
S214001540201CFEF7DDFF0190ABE50232E260ECE521
S214001550201C00F05BFC051E00D0CBE50020CFE58C
S214001560019B42684360286801902A6011782AE649
S21400157000235B680020E1E6201CFFF7C7FB019014
S214001580002800D174E50378182B00D08BE570E5B1
S21400159000235B68002038E75800C01822698000E6
S2140015A0013310186361002814D027230370932595
S2140015B00C4BAD005B19436071E7201C0C30FFF745
S2140015C06BF9019D47E70332E260201C00F01EFC29
S2140015D0051CD7E6436862E7436816E7416889E674
S2140015E04368ABE678740100609B010030B50023C9
S2140015F083B0C26801931378041C002B2BD0452BB4
S21400160029D02E2B27D001AD18E04F2B18D0201C48
S214001610FFF7E6FC021E1ED0201C2E210023FEF73C
S2140016206FFF2860002816D0E268051C137808357E
S214001630002B08D0452B06D02E2B04D0522BE4D1FD
S2140016405378452BE3D10198002804D08368002BFB
S21400165003D003B030BD0020FBE74268117827298D
S214001660F7D15268117C0929F3D15268216B8A1A86
S21400167022634360EDE7C04638B5C368041C1A7899
S2140016804A2A0DD0002500290CD1201CFFF7AEFFFA
S214001690031E0CD0201C29212A1CFEF731FF38BD62
S2140016A00133C360201CFFF79BFC051EEDD1002014
S2140016B0F5E7C046F8B546464F46C0B4C368041CB6
S2140016C01A780E1C472A47D0542A45D0FFF71EFB2F
S2140016D0051E3FD0002E02D0A368DB0722D5E068A7
S2140016E00378281C002B18D0281C452B15D02B1C43
S2140016F01978CAB2042A58D005D31C39042902D84E
S2140017005B68002BF4D10021201CFFF7B5FF0321F6
S214001710031C2A1C201CFEF7F3FE0CBC90469946C0
S214001720F8BD6D682B781A1C1C3A042AF9D9281CB7
S214001730022BF2D1AB681A781C3A042A04D85B68EC
S2140017401A781C3A042AFAD9AB60281CE5E7E36845
S2140017500233E3600020E0E7216B0A1C14322263A8
S2140017601A78542A11D0472AF4D15A1CE2605A78C3
S214001770002AEFD09A1CE2605A78413AD2B2312A57
S214001780E8D8BE4992008A5897465A1CE2605A78B2
S214001790002ADFD09A1CE2605B78433BDBB2332B37
S2140017A0D8D8B74A9B00D3589F465B68002B09D011
S2140017B0B4491A78332A05D892008A5897469B6807
S2140017C0002BF6D101219FE7201C0C30FFF764F8B0
S2140017D00128BFDDE3681A78002ABBD05E1CE660ED
S2140017E01B785F2BB6D1471E3F22002080469146CD
S2140017F03378002BAED0242B00D110E10025735D8A
S214001800002B04D0242B02D00135BD42F7DB311C5F
S214001810201C2A1CFEF79AFE031CE0687F1B461954
S214001820E660002B96D04246002A00D117E1201C25
S2140018303E21FEF765FE804600288BD0002FD7DCC1
S214001840201C3D2142460023FEF75AFE65E7201C79
S214001850FFF75CFA1321021C0023201CFEF750FE43
S2140018605BE7201CFFF752FA051C201CFFF73AF82E
S2140018701621031C2A1C201CFEF742FE4DE7201CE6
S2140018800021FFF717FF1721021C0023201CFEF77C
S21400189037FE42E79A78201C0021002A00D1E0E0BB
S2140018A0DA1CE2609B786E2B00D0DAE0FFF702FFCE
S2140018B04821021C0023201CFEF722FE2DE7201CD8
S2140018C0FFF78EFB051C201C0C30FEF7E5FF0028FA
S2140018D000DA3FE7E26811785F2900D03AE7013284
S2140018E0E260201CFFF77CFB236B021C053323639E
S2140018F0201C0B212B1CFEF703FE0EE7201CFFF717
S21400190005FA1421021C0023201CFEF7F9FD04E74B
S214001910201CFFF765FB0E21021C0023201CFEF78F
S214001920EFFDFAE6201C7621FFF784F8002800D1A8
S21400193010E7201C0021FFF7BDFE1021021C00232B
S214001940201CFEF7DDFDE8E6201C6821FFF772F894
S214001950002800D1FEE6201C0021FFF7ABFE0F2179
S214001960021C0023201CFEF7CBFDD6E6201C00211F
S214001970FFF760F8002800D1ECE6201C0021FFF7F6
S21400198059F8002800D1E5E6201C0021FFF792FE5A
S2140019901121021C0023201CFEF7B2FDBDE6201C10
S2140019A0FFF7B4F91521021C0023201CFEF7A8FD42
S2140019B0B3E60F312163201CFFF712FB0921021C3E
S2140019C00023201CFEF79CFDA7E60A312163201C9D
S2140019D0FFF706FB0A21021C0023201CFEF790FDE1
S2140019E09BE6201CFFF7FCFA0D21021C0023201C9E
S2140019F0FEF786FD91E6201CFFF7F2FA1221021C84
S214001A000023201CFEF77CFD87E6201CFFF7E8FA83
S214001A100C21021C0023201CFEF772FD7DE6737865
S214001A20532B29D05F2B25D0242B00D092E62421DF
S214001A306269A3699A4200DB89E653009B18206915
S214001A409B000132C3186261002B00D17FE659600B
S214001A50E6684A4602361A70023FE660E3E69846B3
S214001A60ECE6FFF727FE4721021C0023201CFEF7AA
S214001A7047FD52E62E21DBE72F21D9E7986F0100BC
S214001A806070010030710100F8B54F464646C0B49C
S214001A90C36881461A78002A2DD05A1CC2605A782C
S214001AA0002118788846002A04D09A1C4C46E2602A
S214001AB05B789846762841D14446303CE3B2092B01
S214001AC01BD84D464846FEF771FF6B69A9698B42E5
S214001AD028DA5A00D2182D69920001334946AA180E
S214001AE04B61002A1ED000281CD032239060137051
S214001AF05460101C17E000208046224A3D24171C24
S214001B0000235837E21AD10F8A185210D21816013D
S214001B10BE1935682978884209D081420CD9141C30
S214001B20A342EFD100200CBC90469946F8BD6978D8
S214001B30884512D04145F2D8531CF1E76328DCD122
S214001B404246762AD9D14846FFF74AFA3321021C84
S214001B5000234846FEF7D4FCE5E74C466269A569D3
S214001B600020AA42DFDA53009B1821699B0001324D
S214001B70CB186261002BD6D031221A705E60181C1A
S214001B80D1E7C046F8760100F8B5C268041C1378A1
S214001B90191C303909291FD9191C6139192933D95B
S214001BA0191C4339012900D86EE04C2B00D19EE069
S214001BB0552B00D0A6E053786C2B2FD0742B00D07A
S214001BC0A0E0531CC3605178742900D1BCE0002506
S214001BD0422908D0281CF8BDFEF7E8FEE368051C7D
S214001BE019784229F6D10133E360201CFEF7DEFEA9
S214001BF02A1C031C4A21201CFEF782FCE368051CF5
S214001C001A78422AEFD0E5E7FFF73EFF051E02D01E
S214001C100378312B78D0E3681978E2E7531CC36069
S214001C2051786C29D3D10232C260FFF7DFFCE3683B
S214001C30061C19780028CAD04529C8D10133E360AC
S214001C40201CFEF767FE002800DA98E06369A169A9
S214001C508B4200DB93E05D00ED182269AD00013396
S214001C6055196361002D00D189E044236E60A86099
S214001C702B70676A236ABB4200DB80E0E0699A004B
S214001C80013315502362C6E7C06A002800D1A0E0E1
S214001C900578002D52D0191C182D00D1A1E043293B
S214001CA077D0442972D15378312B00D1AAE000D8DE
S214001CB091E0322B00D1A1E00426352B00D08EE037
S214001CC06169A569931CE360A9425CDA4D006D1852
S214001CD02769AD0001317D196161002D53D00028C0
S214001CE051D0082129702E71A860917879E70132C9
S214001CF0C260FEF75BFE051E04D0201CFEF746FE03
S214001D00002888D1002066E74368206B996842184F
S214001D100732226318683C4907F078F9002800D09B
S214001D2079E7201CFEF742FE3521031C2A1C201CE6
S214001D30FEF7E6FBE368051C197852E7256B876813
S214001D40EB1923631178AAE70232C260FEF7E2FDC0
S214001D50002814DB6369A1698B4210DA5D00ED1878
S214001D602269AD00013355196361002D07D0462363
S214001D7068602B70676A236ABB4200DA7EE7E36816
S214001D80002519782DE7002591782AE7131C0025F1
S214001D9027E75378322B2FD029D9332B30D004267F
S214001DA0352B1CD16169A769931CE360B942EADA56
S214001DB04D006D182769AD0001317D196161002D58
S214001DC0E1D00028DFD0072129702E71A860917815
S214001DD007E7191C63E70126302B00D170E70025C2
S214001DE0F8E6216B85684B192363117857E70126BF
S214001DF0312BD7D00025EDE60226D3E703265FE792
S214001E000326CFE702265BE7689B0100F0B547464E
S214001E1080B4C168041C0B784C2B00D1E8E0542B2E
S214001E2000D1E9E0732B61D0662B31D01A1C303A12
S214001E30092A0FD8201CFFF7A7FE002800D1CEE005
S214001E40E268051C1378492B00D1EAE0281C04BC84
S214001E509046F0BD6F2B00D1C3E0692B00D1EBE0BC
S214001E60742B19D14B786C2B16D1201CFFF7B8F8C1
S214001E70E168051C0231E160201C452100F0BAF93A
S214001E802A1C031C3021201CFEF73AFB051CDDE74C
S214001E904B78702B00D183E0201CFFF7F5FD051E64
S214001EA000D19CE00678312E00D1A9E0322E2FD04A
S214001EB0332E00D093E000239846E3681A785F2A12
S214001EC000D109E1201CFFF7A1FF031C4146201C9E
S214001ED0002905D037211A1CFEF712FB031C201C14
S214001EE02A1C3521FEF70CFB051CAFE74B78722B3E
S214001EF000D1D8E0702BCFD10231C160FFF786FF4A
S214001F004921021C0023201CFEF7FAFA051C9DE757
S214001F1043680027012B00D145E100DCE4E0022BFA
S214001F2000D18FE0032B5AD1381CAD4907F06EF86C
S214001F30002800D1E7E03B786E2B50D17B78772BDA
S214001F4001D0612B4BD15F21201C00F053F9061CF9
S214001F50201CFFF745F8E168071C0B78452B00D1DD
S214001F6006E1702B00D112E1692B38D14B786C2B2F
S214001F7035D1201CFFF74AFF031C3A213A1C201CCF
S214001F80FEF7BEFA3921031C321C201CFEF7B8FAF5
S214001F902A1C031C3821201CFEF7B2FA051C55E744
S214001FA08B1CC3608B78542B00D191E0FEF7B2FCFB
S214001FB00130002813D06269A3699A420FDA5300F1
S214001FC09B1821699B000132CB1862610025002B0B
S214001FD000D13BE706221A7058601D1C36E7002524
S214001FE034E74B786E2B00D056E70231C16021E70C
S214001FF0FEF7D8FD051C29E7FEF7A4FC051C25E71F
S2140020004368226B1F6898469B68381C023BD318AF
S2140020102363744906F0FAFF002870D04146CB6867
S21400202078E7201CFEF71CFE2A1C031C0421201C3B
S214002030FEF766FA051C09E74B786C2B00D02BE7F9
S214002040002517E76B681B685A78632A6ED0201C39
S214002050FFF7DCFE8046381C634906F0D7FF0028F1
S2140020605ED0381C614906F0D1FF002805D0381C28
S2140020705F4906F0CBFF002875D1201CFFF784FDD2
S214002080E268061C1378492B76D037214246331C6B
S214002090201CFEF735FA2A1C031C3621201CFEF7EE
S2140020A02FFA051CD2E60231C160FEF799FF051C27
S2140020B0201CFFF769FDE268061C1178201C4929E0
S2140020C041D02A1C0121331CFEF71AFA051CBDE676
S2140020D00331C16000206EE70133E360201C452118
S2140020E000F088F8031CF1E6002B00D077E72A1CE6
S2140020F0201C34210023FEF703FA051CA6E6201C4C
S214002100FEF76EFFEAE6201CFFF780FE061C201C8A
S214002110FFF77CFE071C201CFFF778FE031C2CE74D
S214002120201C452100F066F8061CAEE71B781A1C3A
S214002130633A012A02D9723B012B88D8201CFEF78D
S2140021404FFF804687E7FEF78BFD0421031C321CF9
S214002150201CFEF7D5F92A1C031C0121201CFEF7C3
S214002160CFF9051C72E6201CFFF750FE061C8CE714
S2140021700131E160002300E7201CFEF771FD321CF0
S214002180031C0421201CFEF7BBF9061C7DE74B78D8
S214002190692B00D023E70231E160201C452100F0C6
S2140021A029F8031CE9E600229046974204D03B78C3
S2140021B0702B05D06D2B03D0332E00D082E67CE644
S2140021C07A78002188469A42F6D1E36801211A7887
S2140021D088465F2AF0D101330022E3609046EBE7A1
S2140021E0789B010014A001006C9B0100709B01000D
S2140021F0749B010070B5002382B00193C368041C71
S2140022001A780E1C01AD8A420ED119E0201C2E2130
S2140022100023FEF775F9286000280AD0E368051C3D
S2140022201A780835B24207D0201CFFF7EFFD021ED1
S214002230ECD1002002B070BD0133E3600198F9E7ED
S2140022400133C3602E2100220023FEF759F9F1E77F
S214002250F0B5454657464E46E0B4041C82B0081C0E
S2140022600D1C11F02FF8002830D000229246842250
S21400227052008023914686225B005200E3582F18B6
S21400228090460BE0191C013380225200A350822294
S214002290520001356654A654BD4217D02E78FF2B47
S2140022A0F0D15246E2544A46A2584346E3580092BA
S2140022B001931A1CFF21009B201C984790235B006B
S2140022C0E25800210132E2500123DDE702B01CBCD7
S2140022D090469946A246F0BDF0B54D4644465F4648
S2140022E05646F0B4DC4C1378A5446991041C151CC2
S2140022F04B2B01D901F0ACFBD8499A008A58974677
S2140023008A235B00E35870938A2370AE5B00E65026
S2140023100023B36088235B00E3587560F3606A6847
S214002320201C699902F0ECFDB368002B04D1201C38
S21400233069992A1C02F0F4FD8A23709A5B00E25029
S21400234081239B009D443CBC90469946A246AB46E2
S214002350F0BD8A2252008658002E01D102F011FDEF
S214002360321C9768002F09D150680178081C19386C
S214002370022806D88B4201D102F076F81268002AAD
S214002380EFD1331CBFE7AF686E68002FD8D0842229
S214002390520080239246862252005B00C358914624
S2140023A000203A1C051C8346371C90460BE0191C7F
S2140023B0013380225200A350822252000135665417
S2140023C0A654A845BCD07E5DFF2BF0D159464A46A0
S2140023D0E154A2585346E358FF21201C34929847F4
S2140023E090235B00E25800210132E2500123E0E72F
S2140023F08422520080239A4E5B0011279246862242
S214002400C358BF1900205200B846834691460DE0D7
S214002410191C013380225200A3508222520001363A
S2140024206754A754464501D101F08AFB3778FF2B45
S214002430EED159464A46E154A2585346E358FF2186
S214002440201C3A92984790235B00E2580021013204
S214002450E2500123DEE7842252008023814E5B0097
S214002460192792468622C358BF1900205200B84644
S214002470834691460DE0191C013380225200A3507A
S2140024808222520001366754A754464501D101F016
S21400249092FB3778FF2BEED159464A46E154A258B4
S2140024A05346E358FF21201C4092984790235B0038
S2140024B0E25800210132E2500123DEE78422520076
S2140024C0694E80231527934686225B00BF1952006B
S2140024D0C358B94692460EE0191C013380225200BA
S2140024E0A35090468222520001366754A7544E45A8
S2140024F001D101F02CFB3778FF2BEDD151465A461F
S2140025006158A2583E913D920020E054FF213E9A29
S2140025103D9B201C984790235B00E2580021013227
S214002520E2500123DAE78422520080234F4E5B00FC
S214002530162792468622C358BF1900205200B84676
S214002540834691460DE0191C013380225200A350A9
S2140025508222520001366754A754464501D101F045
S21400256031FB3778FF2BEED159464A46E154A25844
S2140025705346E358FF21201C4292984790235B0065
S214002580E25800210132E2500123DEE784225200A5
S2140025908023374E5B00132792468622C358BF1906
S2140025A000205200B846834691460DE0191C0133C0
S2140025B080225200A3508222520001366754A7544C
S2140025C0464501D101F021FC3778FF2BEED1594664
S2140025D04A46E154A2585346E358FF21201C449231
S2140025E0984790235B00E25800210132E250012315
S2140025F0DEE78422520080231E4E5B001A27924696
S2140026008622C358BF1900205200B846834691461A
S2140026100DE0191C013380225200A3508222520082
S21400262001366754A754464501D101F0FCFB3778C4
S214002630FF2BEED159464A46E154A2585346E3587A
S214002640FF21201C4892984790235B00E258002107
S2140026500132E2500123DEE7FCFDFFFF00720100BD
S214002660C49C0100909C0100AC9C0100789C010079
S214002670649C0100389C0100842252008023E64EB0
S2140026805B000F2792468622C358BF1900205200CF
S214002690B846834691460DE0191C0133802252004D
S2140026A0A3508222520001366754A754464501D1F2
S2140026B001F0B2FB3778FF2BEED159464A46E1547B
S2140026C0A2585346E358FF21201C46929847902371
S2140026D05B00E25800210132E2500123DEE784224B
S2140026E052008023CD4E5B00112792468622C358A7
S2140026F0BF1900205200B846834691460DE0191CCB
S214002700013380225200A3508222520001366754C1
S214002710A754464501D101F08DFB3778FF2BEED14B
S21400272059464A46E154A2585346E358FF21201C16
S2140027304A92984790235B00E25800210132E2500B
S2140027400123DEE7842252008023B54E5B00152766
S21400275092468622C358BF1900205200B8468346C8
S21400276091460DE0191C013380225200A3508222AC
S214002770520001366754A754464501D101F029FBA3
S2140027803778FF2BEED159464A46E154A2585346B5
S214002790E358FF21201C4C92984790235B00E25898
S2140027A000210132E2500123DEE78422520080231A
S2140027B09C4E5B00122792468622C358BF19002003
S2140027C05200B846834691460DE0191C013380221C
S2140027D05200A3508222520001366754A754464541
S2140027E001D101F004FB3778FF2BEED159464A465B
S2140027F0E154A2585346E358FF21201C50929847B4
S21400280090235B00E25800210132E2500123DEE70C
S214002810842252008023844E5B0010279246862234
S214002820C358BF1900205200B846834691460DE0B3
S214002830191C013380225200A35082225200013616
S2140028406754A754464501D101F0CAFA3778FF2BE2
S214002850EED159464A46E154A2585346E358FF2162
S214002860201C4E92984790235B00E25800210132CC
S214002870E2500123DEE78422520080236B4E5B0089
S2140028800D2792468622C358BF1900205200B8462C
S214002890834691460DE0191C013380225200A35056
S2140028A08222520001366754A754464501D101F0F2
S2140028B0A5FA3778FF2BEED159464A46E154A2587E
S2140028C05346E358FF21201C5292984790235B0002
S2140028D0E25800210132E2500123DEE78422520052
S2140028E0534E80231827934686225B00BF1952005A
S2140028F0C358B94692460EE0191C01338022520096
S214002900A35090468222520001366754A7544E4583
S21400291001D101F0D3F83778FF2BEDD151465A4656
S2140029206158A258569155920020E054FF21569ABD
S214002930559B201C984790235B00E25800210132EB
S214002940E2500123DAE78023842252005B00394EEE
S214002950C35892460B2086228019002152008046DA
S2140029608B4691460DE0191C013380225200A3507D
S2140029708222520001366754A754464501D101F021
S21400298021FA3778FF2BEED15A465046E2542058AB
S2140029904B46E35859901A1C5A93FF21599B201C0A
S2140029A0984790235B00E25800210132E250012351
S2140029B0DBE78422520080231F4E5B0008279246E6
S2140029C08622C358BF1900205200B8468346914657
S2140029D00DE0191C013380225200A35082225200BF
S2140029E001366754A754464501D101F0A2F837785E
S2140029F0FF2BEED159464A46E154A2585346E358B7
S214002A00FF21201C5892984790235B00E258002133
S214002A100132E2500123DEE7549C0100249C0100B1
S214002A20209C0100F89B01000C9C0100E89B010023
S214002A30C49B0100AC9B0100B89B010080235B0097
S214002A40C358FF2B01D101F083FD591C8022520090
S214002A50A1507E22E25482235B00E254AA68201C26
S214002A60699902F04DFA6BE4AA68699902F048FA8F
S214002A7066E48A214900475800234350BB466F68E6
S214002A80002F01D101F0C0FF88235B00C05870AE54
S214002A90844600208A46331C021C8146011CA84638
S214002AA01A605246A3506246DA603A784846986002
S214002AB0101C1C381D1C5F600131042801D800F072
S214002AC0D6FF45468846042A01D102F01FF9022A9D
S214002AD044D1B9680B78452B00D149680B781C3B6C
S214002AE0042B3BD84246042A01D102F044F9404662
S214002AF0424603018A204000013A12018246B94646
S214002B0040466746B218F3186A906B97B0466C94C6
S214002B10AC4606E06A9C10321033042C01D102F059
S214002B2029F91C1C171C61CF61C43F681C3CE76177
S214002B306C986B9E1C60002554460351516095604E
S214002B40D66049686A980C7801301C3C6A90042C60
S214002B50E0D96C9C46464F4665468046AA68201CCF
S214002B60699902F0CDF93B78042B01D102F0FCF80C
S214002B704346002B01D101F0CEFF4546013D2B0117
S214002B800833F61880235B00984682235B0099463C
S214002B9033682027002B08D0103E002D01D101F00D
S214002BA0BAFF3368013D002BF6D140462258FF2A73
S214002BB001D102F031F9531C41466350A754331F2C
S214002BC04A46A754201C1A68699902F0A9F9E3E757
S214002BD069996A6802F094F98023699E5B00E3585D
S214002BE0760701D500F04FFF84225200ED4E924644
S214002BF08622B71C00205200B846834691460DE058
S214002C00191C013380225200A35082225200013642
S214002C106754A754464501D100F042FF3778FF2B92
S214002C20EED159464A46E154A2585346E358FF218E
S214002C30201C6292984790235B00E25800210132E4
S214002C40E2500123DEE7699E760701D501F024FCF9
S214002C506F68B846AF68002F01D1FFF771FB84227A
S214002C60520080239246862252005B00C35891464B
S214002C7000203A1C051C4746834690460DE0191C6A
S214002C80013380225200A35082225200013566543E
S214002C90A654A84501D1FFF753FB7E5DFF2BEED16E
S214002CA059464A46E154A2585346E358FF21201C91
S214002CB06692984790235B00E25800210132E2506A
S214002CC00123DEE76A68699902F01AF98422520045
S214002CD0B54E80230827934686225B00BF19520014
S214002CE0E358B94692460EE0191C01338022520082
S214002CF0A35090468222520001366754A7544E4590
S214002D0001D101F09EF83778FF2BEDD151465A4697
S214002D106158A258029101920020E054FF21029AC5
S214002D20019B201C984790235B00E258002101324B
S214002D30E2500123DAE7291DFDF7AAFE021E01D1A3
S214002D4001F0A8FA03782F2B01D101F094FA882518
S214002D506D006659201C37686999675102F0D0F8F3
S214002D606651FFF7EDFA8A235B000022C758C2506F
S214002D70699B6E685B0707D53378002B04D1B06873
S214002D80062801D101F006FF201C6999321C02F0CA
S214002D90B7F882235B00E35C3C2B01D101F082FE96
S214002DA080235B00E358FF2B01D101F039FD591C4D
S214002DB0802252008226A150760090463C22E254A1
S214002DC0A255AA68201C699902F09AF8A35D3E2BCA
S214002DD001D101F057FE41466358FF2B01D101F0A7
S214002DE00BFD591C80225200A1503E22E254822341
S214002DF05B00E2548A235B00E750FFF7A1FA6E6897
S214002E0080235B00B146C358002E01D001F05FF965
S214002E1084225200654D91468622002052002F1DC6
S214002E20824690460DE0191C013380225200A350C2
S214002E308222520001356654A654BD4201D1FFF7E6
S214002E407FFA2E78FF2BEED151464246E154A25827
S214002E504B46E358FF21201C1692984790235B00B0
S214002E60E25800210132E2500123DEE76A686999E0
S214002E7002F046F84E4E8023721D91468422520080
S214002E80934686225B005200E35892460EE0191CD9
S214002E90013380225200A35090468222520001360F
S214002EA06754A7544E4501D100F0E0FF3778FF2B5A
S214002EB0EDD151465A466158A2586491639200205B
S214002EC0E054FF21649A639B201C984790235B0084
S214002ED0E25800210132E2500123DAE76968FDF783
S214002EE0FDFD002801D101F0F7FE0026321C037814
S214002EF02F2B01D001F070F84768002F01D101F0A8
S214002F006BF8806801320028F1D16D6892466B95A7
S214002F105546013D274F6C9500265546B346023769
S214002F206D958E2658467600A0516999201C6B9A9E
S214002F3001F0E6FF6C9D5D4501DC00F08FFD84220C
S214002F4052008023914686225B0000265200E358FA
S214002F50184DB24690460DE0191C013380225200EF
S214002F60A3508222520001356654A654BD4201D1B8
S214002F7000F074FD2E78FF2BEED141464A4661588C
S214002F80A258189117925046E054FF21189A179BA2
S214002F90201C984790235B00E25800210132E25043
S214002FA00123DBE7849B0100EC9D01007C9D010072
S214002FB07C9B01000C9D0100842252008023E74E7A
S214002FC05B001A2792468622C358BF19002052007B
S214002FD0B846834691460DE0191C01338022520004
S214002FE0A3508222520001366754A754464501D1A9
S214002FF000F0B6FF3778FF2BEED159464A46E1542B
S214003000A2585346E358FF21201C36929847902337
S2140030105B00E25800210132E2500123DEE78C23F8
S21400302001225B00C250FFF78BF9AF683B78372B65
S21400303001D101F0CAF88C2301225B00E250FFF7B1
S2140030407FF96E68AD683378312B01D101F083F9D2
S214003050332B01D101F0CDF96999321C02F0B8FE8C
S214003060201C69992A1C02F005FFFFF769F96A68B7
S214003070699902F0ADFEFFF763F9842252008023BF
S214003080B74E5B00092792468622C358BF19002018
S2140030905200B846834691460DE0191C0133802243
S2140030A05200A3508222520001366754A754464568
S2140030B001D100F047FF3778FF2BEED159464A463C
S2140030C0E154A2585346E358FF21201C209298470B
S2140030D090235B00E25800210132E2500123DEE734
S2140030E06B6884229D6852006A959E4D984692466B
S2140030F0802386225B002F1C00265200C358083708
S214003100B34691460DE0191C013380225200A350AD
S2140031108222520001356654A654BD4201D100F009
S214003120C1FE2E78FF2BEED1494652466158A25872
S214003130269125925846E054FF21269A259B201C6E
S214003140984790235B00E25800210132E2500123A9
S214003150DBE7842252008023814E5B0009279246DB
S2140031608622C358BF1900205200B84683469146AF
S2140031700DE0191C013380225200A3508222520017
S21400318001366754A754464501D100F0E2FE377871
S214003190FF2BEED159464A46E154A2585346E3580F
S2140031A0FF21201C2292984790235B00E2580021C2
S2140031B00132E2500123DEE76A68AE68002A02D0D8
S2140031C0699901F09DFE80235B00E358FF2B01D137
S2140031D001F0E3FA5A1C80257B216D006251E15410
S2140031E082235B00E154201C6999321C01F088FEA2
S2140031F06359FF2B01D101F0BCFA591C8022520002
S214003200A1507D22E25482235B00E254FFF798F837
S2140032106A68002A02D0699901F072FEAE68002E34
S21400322001D1FFF78DF880277F00E659FD2E01D9E2
S21400323001F004F94C4FA846BB1C9A4684235B0059
S2140032409B460EE0321C013680235B00E650994612
S21400325082235B000137A554E554574501D100F0A1
S2140032609BFE3D78FF2EEDD1862149005A466158D7
S214003270A258289127920020A055289A279B201C08
S214003280FF21984790235B00E25801260132E25066
S2140032900022D9E70A26AB5F002B01D001F026F802
S2140032A06A68324B5768E4339F4201D100F0DEFF74
S2140032B0201C699901F024FE80235B00E258FF2A57
S2140032C001D101F08DFB531C802149006350202161
S2140032D0A15482225200A1540826AA5F002A01D1D6
S2140032E000F083FE84225200214D91468622002063
S2140032F05200AF1D824690460DE0191C0133802215
S2140033005200A3508222520001356654A654BD4294
S21400331001D1FFF715F82E78FF2BEED15146424625
S214003320E154A2584B46E358FF21201C2C929847A4
S21400333090235B00E25800210132E2500123DEE7D1
S214003340842252000B4E80230A27934686225B0077
S214003350BF195200C358B94692461CE0D89C0100DB
S2140033601C9D0100109D01000C9D01007874010059
S214003370FC9C01006C9D0100191C01338022520048
S214003380A35090468222520001366754A7544E45F9
S21400339001D100F0ECFD3778FF2BEDD151465A46AF
S2140033A06158A2581A9119920020E054FF211A9AE7
S2140033B0199B201C984790235B00E258002101329D
S2140033C0E2500123DAE770AE6A68301CEE490FF06F
S2140033D04BFF301C0FF076FF002801D1FEF7B0FF40
S2140033E00022151C934684225200924686225200E2
S2140033F080235B009146321CE358061C90460DE085
S214003400191C013380225200A3508222520001353B
S2140034106754A754B54201D1FEF792FF4046475D78
S214003420FF2BEDD159464A46E154A2585346E3587D
S214003430FF21201C1E92984790235B00E258002133
S2140034400132E2500123DDE780235B00C3582D796B
S214003450FF2B01D101F0A2F8591C80225200A15086
S214003460E55482235B00E554FEF76AFF69996A68B3
S21400347001F046FDAA68201C699901F041FDFEF79F
S2140034805FFF842252008023C04E5B000E279246C8
S2140034908622C358BF1900205200B846834691467C
S2140034A00DE0191C013380225200A35082225200E4
S2140034B001366754A754464501D100F0ECFC377836
S2140034C0FF2BEED159464A46E154A2585346E358DC
S2140034D0FF21201C1C92984790235B00E258002195
S2140034E00132E2500123DEE76A68002611782729B8
S2140034F012D15268167C002E0ED0062E01D801F08E
S21400350005FA072E08D1AA681178002904D1976811
S214003510012F01D101F038FC80235B00E358FF2B1C
S21400352001D101F0D8F95A1C80277F00E2512822E9
S214003530E25482235B00E254201C69996A6898462C
S21400354001F0DEFCE359FF2B01D101F09DF95A1C76
S21400355029214046E251E15421542B783C2B01D1DD
S21400356001F07BFA082E01D101F054FAAA68201C5B
S214003570699901F0C5FCFEF7E3FE8C2301225B008F
S214003580C250FEF7DDFEAB681A78392A00D052E545
S21400359099680A783A2A00D04DE56E684F68B046BA
S2140035A040465E6843688D681868794905F02EFDC8
S2140035B0002801D101F03BFB7649201CFEF748FEAF
S2140035C07168002908D0201C6999321C02F052FC50
S2140035D0201C2021FDF73CF9201C69993A1C01F0BB
S2140035E08FFC002D01D1FEF7ABFE201C69992A1C2A
S2140035F002F040FCFEF7A4FE699EB60601D500F078
S2140036004FFE6E68002E05D0699E4023334001D1E0
S21400361001F01AF96999602399438A232A1C5B00F2
S2140036200832E358201C02F0DFF9FEF789FE6A68CC
S214003630699901F065FCFEF783FE699E6B68760764
S21400364001D500F007FD1F68B8465F68002F01D15E
S214003650FEF776FE8422520080239246862252008F
S2140036605B00C358914600203A1C051C474683461B
S21400367090460DE0191C013380225200A35082228E
S214003680520001356654A654A84501D1FEF758FEEF
S2140036907E5DFF2BEED159464A46E154A25853466A
S2140036A0E358FF21201C3292984790235B00E25893
S2140036B000210132E2500123DEE768680378052B1B
S2140036C001D101F057F9232B01D100F078FD2A78BB
S2140036D09A4201D100F073FD242B01D0FEF710FEB4
S2140036E08A2370AE5B004268E158E6500023B36060
S2140036F088235B00E35870917560F360002A01D060
S214003700FEF70EFEFEF70BFE8A235B0070AEC25875
S214003710C6500023729388235B00C3587092699941
S214003720AA687393719501F0EBFBB368002B04D184
S214003730201C69992A1C01F0F3FB8A23709D5B000C
S214003740E550FEF7FDFD8A204000225870AE0023AB
S2140037507092B36088235B00E358904626507560ED
S214003760F360002A01D101F0DCF951680B78193BAF
S214003770022B01D901F0D5F9131C0122171C94461F
S214003780A346A946B2460CE0989B01005C9D01004A
S214003790789B0100389D01005D682A78193A022A54
S2140037A01FD89C68002C19D1032F01D901F01DF8F1
S2140037B0390155466A181D1C51CD51C22D688A26FE
S2140037C0156076005D46AD598A22564675505846B5
S2140037D0514452006446815001379C601B68002BA0
S2140037E0DAD14D46584669995646AA6801F088FBD4
S2140037F08A23B1685C465B004046E050002901D051
S214003800FEF79EFD012F01D101F099F9013F3B0122
S214003810F618699C04365D463268281C211CC8468A
S21400382001F07EFB103E012F08D03268281C211CB8
S214003830013F01F075FB103E012FF6D18A232C1CA8
S2140038405B00E35845462A1D201C699901F0E2FFFB
S214003850FEF776FD84225200EA4E80230E2793461A
S21400386086225B00BF195200C358B94692460DE047
S214003870191C013380225200A35090468222520027
S21400388001366754A7544E4500D142E23778FF2BE5
S214003890EED151465A466158A2580691059200202C
S2140038A0E054FF21069A059B201C984790235B0056
S2140038B0E25800210132E2500123DBE78422520065
S2140038C08023D14E5B00162792468622C358BF1926
S2140038D000205200B846834691460CE0191C01337E
S2140038E080225200A3508222520001366754A75409
S2140038F0464500D11FE33778FF2BEFD159464A469D
S214003900E154A2585346E358FF21201C38929847AA
S21400391090235B00E25800210132E2500123DFE7EA
S214003920842252008023B94E5B001C2792468622D2
S214003930C358BF1900205200B846834691460CE093
S214003940191C013380225200A350822252000136F5
S2140039506754A754464500D1E6E23778FF2BEFD1EF
S21400396059464A46E154A2585346E358FF21201CC4
S2140039700E92984790235B00E25800210132E250F5
S2140039800123DFE7842252008023A14E5B001D271F
S21400399092468622C358BF1900205200B846834676
S2140039A091460CE0191C013380225200A35082225B
S2140039B0520001366754A754464500D1FBE13778DC
S2140039C0FF2BEFD159464A46E154A2585346E358D6
S2140039D0FF21201C1092984790235B00E25800219C
S2140039E00132E2500123DFE784225200894E802311
S2140039F00827934686225B00BF195200C358B94673
S214003A0092460DE0191C013380225200A3509046C6
S214003A108222520001366754A7544E4500D1DFE09B
S214003A203778FF2BEED151465A466158A2580C9172
S214003A300B920020E054FF210C9A0B9B201C984709
S214003A4090235B00E25800210132E2500123DBE7BD
S214003A508C2301225B00E250FEF772FC01266D9D6E
S214003A60B344AB4501D0FFF75CFAFEF769FC7F680C
S214003A70002F01D100F0C8FF1033042900D1A5E2C1
S214003A802A1CFFF70DF8FF2B01D101F05BF8591C3B
S214003A9080225200A1502E22E25482235B00E25480
S214003AA0AE683378B046452B01D100F0B0FD201C3F
S214003AB06999424601F024FAFEF742FC201C6A6827
S214003AC0699901F01DFA464684225200A359524EC7
S214003AD092468622371D00205200B84683469146FD
S214003AE00BE0191C013380225200A35082225200A0
S214003AF001366754A754464514D03778FF2BF0D1CB
S214003B0059464A46E154A2585346E358FF21201C22
S214003B105492984790235B00E25800210132E2500D
S214003B200123E0E7AA68201C699901F0E9F9FEF78D
S214003B3007FC6A68201C699901F0E2F9FEF700FCB0
S214003B406A68201C699901F0DBF9FEF7F9FB201C76
S214003B50AA68699901F0D4F9464684225200A3590E
S214003B602E4E92468622771D00205200B846834687
S214003B7091460BE0191C013380225200A35082228A
S214003B80520001366754A754464522D03778FF2B9B
S214003B90F0D159464A46E154A2585346E358FF210D
S214003BA0201C3C92984790235B00E258002101328B
S214003BB0E2500123E0E76A68201C699901F0A0F949
S214003BC0FEF7BEFB6A68201C699901F099F9FEF7BA
S214003BD0B7FB6A68201C699901F092F9FEF7B0FB02
S214003BE06A68201C699901F08BF9464684225200C7
S214003BF0A3590B4E93468622B71C5200B9469246EE
S214003C001DE0C046DC9D0100DC9C0100AC9D01006F
S214003C108C9D0100CC9D0100E09B0100A49C01004E
S214003C20D89D0100191C013380225200A3509046F3
S214003C308222520001366754A7544E4517D0377873
S214003C40FF2BEFD151465A466158A2580A91099265
S214003C500020E054FF210A9A099B201C98479023D5
S214003C605B00E25800210132E2500123DCE7AA683B
S214003C7070AE0132E249301C0FF0F6FA301C0FF03D
S214003C8021FB8146002833D08422520092468622A9
S214003C905200474600209046321CE3594E46051C0B
S214003CA0834691460BE0191C013380225200A35034
S214003CB08222520001356754A754B5421AD04946AD
S214003CC04F5DFF2BEFD15A465046E25420584346EC
S214003CD0E35807901A1C0893FF21079B201C98475F
S214003CE090235B00E25800210132E2500123DCE71A
S214003CF045466359FF2B01D100F0B8FC591C8022C1
S214003D005200A1507D22E25482235B00E254FEF76B
S214003D1017FB6A6870AE0132B949301C0FF0A4FA7E
S214003D20301C0FF0CFFA8146002833D08422520090
S214003D30924686225200474600209046321CE3599F
S214003D404E46051C834691460BE0191C0133802223
S214003D505200A3508222520001356754A754B54240
S214003D601AD049464F5DFF2BEFD15A465046E254D3
S214003D7020584346E35803901A1C0493FF21039BE4
S214003D80201C984790235B00E25800210132E25045
S214003D900123DCE745466359FF2B01D100F011FDF6
S214003DA0591C80225200A1507D22E25482235B00DF
S214003DB0E254FEF7C5FA6A68201C699901F0A0F87B
S214003DC0FEF7BEFA6A68201C699901F099F8FEF7BA
S214003DD0B7FA6A68201C699901F092F8FEF7B0FA03
S214003DE06A68201C699901F08BF8FEF7A9FA6A68E0
S214003DF0201C699901F084F8FEF7A2FA6A68201C74
S214003E00699901F07DF8FEF79BFA6A68201C6999AB
S214003E1001F076F8FEF794FA6A68201C699901F0BA
S214003E206FF8FEF78DFA6A68201C699901F068F849
S214003E30FEF786FA6A68201C699901F061F8FEF7B9
S214003E407FFAAA68201C6999454601F059F863591B
S214003E50FF2B00D1C8E3591C80225200A1505D22DE
S214003E60E25482235B00E254FEF76AFAAA68201C3A
S214003E706999454601F044F86359FF2B00D1A0E349
S214003E80591C80225200A1505D22E25482235B001E
S214003E90E254FEF755FA6A68201C699901F030F87A
S214003EA0FEF74EFA464675682A78613A192A00D80F
S214003EB00CE26A9EAB19013B1F78203F7B425F41B4
S214003EC0F71B01D1FEF73CFA84225200802391466C
S214003ED086225B0000205200E358EF198246904687
S214003EE00DE0191C013380225200A350822252009A
S214003EF001356654A654BD4201D1FEF721FA2E784C
S214003F00FF2BEED151464246E154A2584B46E358A9
S214003F10FF21201C2492984790235B00E258002142
S214003F200132E2500123DEE76A68201C699900F03E
S214003F30E7FFFEF705FA6A68201C699900F0E0FFC3
S214003F40FEF7FEF92A1D201C699901F063FEFEF7B4
S214003F50F7F9AA68201C699900F0D2FFFEF7F0F97D
S214003F606A68201C699900F0CBFFFEF7E9F96A68D9
S214003F70201C6999454600F0C3FF6359FF2B00D10A
S214003F80F9E2591C80225200A1502922E2548223D1
S214003F905B00E254FEF7D4F990277F00E0594546CF
S214003FA0AA6880466999201C00F0AAFFE359984544
S214003FB001D0FEF7C5F949466158B14201D0FEF777
S214003FC0BFF9023E4A46A650FEF7BAF98C230122F4
S214003FD05B00E250FEF7B4F96D6892466B95002AD6
S214003FE001D0FEF795FFFEF7ABF984225200054D8F
S214003FF09146862200265200AF1DB246904611E03A
S214004000989B0100049D0100191C01338022520078
S214004010A3508222520001356654A654BD4201D1F7
S214004020FEF78EF92E78FF2BEED141464A466158B0
S214004030A2582A9129925046E054FF212A9A299B99
S214004040201C984790235B00E25800210132E25082
S2140040500123DBE79D68DF68A846002F01D1FEF745
S2140040606FF9842252009246862252008023002650
S2140040705B0091463A1CC3584746351CB3469046EB
S2140040800DE0191C013380225200A35082225200F8
S21400409001356654A654A84501D1FEF751F97E5D58
S2140040A0FF2BEED1494652466158A25830912F92C6
S2140040B05846E054FF21309A2F9B201C98479023A7
S2140040C05B00E25800210132E2500123DBE7842244
S2140040D05200E94D93468622AE1D5200B0469246E7
S2140040E00BE01A1C013380277F00E351A65482227E
S2140040F052000135A654454517D02E78FF2BF0D137
S2140041005046594620586158149013910027E7549A
S214004110149A139B201CFF21984790235B00E258BB
S2140041200132E25001230022DDE770AED3494A4651
S214004130301C0FF099F8301C0FF0C4F8E359002833
S2140041402ED08422520092468622520000279146A4
S214004150321C3D1CBB46061C90460BE0191C013366
S21400416080225200A3508222520001356754A75481
S214004170B54215D04046475DFF2BEFD159464A461B
S214004180E154A2585346E358FF21201C1292984748
S21400419090235B00E25800210132E2500123DFE762
S2140041A0FF2B01D100F0E2FC591C80225200A150E6
S2140041B07D22E25482235B00E254FEF7C1F88A2394
S2140041C05B00E358051CFEF79EF86A68536819689A
S2140041D04878632801D100F076FC1178312901D1A6
S2140041E000F0FCFC5368A64E1868311C04F00EFF65
S2140041F07A68002804D11378032B01D100F008FD5B
S214004200201C699901F036FE68689E49436880461E
S2140042101F68381C04F0FAFE002801D100F0CEFC1E
S214004220381C311C04F0F2FE002801D000F0E9FC36
S214004230AB68201C9A68699901F01CFE6B681A78B6
S214004240312A01D0FEF77CF85B689A68012A01D013
S214004250FEF776F85B681B783E2B01D0FEF770F809
S214004260201C2921FCF7F4FAFEF76AF880235B008D
S214004270E358FFF731F88E235B00E35802E011782D
S2140042802F2907D1002B01DC00F02EFE9268013B9F
S214004290002AF4D18C2301225B00E250FEF750F88E
S2140042A0699E60239E438A232A1C5B000832C358FB
S2140042B0311C01F099FB6A68002A01D1FEF740F82C
S2140042C0201C311C00F01CFEFEF73AF8FF2B01D133
S2140042D000F0C7FC5A1C8021490062502022E2549C
S2140042E082235B00E25447467D68E2E58422520062
S2140042F08023654E5B0092468622C3580021701DBF
S214004300520080468B4691460DE0191C01338022F0
S2140043105200A3508222520001366754A7544645E5
S21400432001D1FEF7BDFF3778FF2BEED15A46504637
S214004330E25420584B46E3582D901A1C2E93FF212A
S2140043402D9B201C984790235B00E25800210132E9
S214004350E2500123DBE773684C491F68381C04F001
S21400436055FE2B78002803D1032B01D100F0BFFCAB
S214004370372B01D100F062FD201C6999321C01F038
S21400438027FD002F01D1FEF76BFE381C404904F0D4
S2140043903DFE002800D1B2E2381C3E4904F036FE4D
S2140043A0002801D0FEF75CFE80235B00E358FF2B5D
S2140043B001D100F0C7FC80265A1C7600A2512822A4
S2140043C0E25482235B00E254201C69992A1C00F008
S2140043D097FDA359FF2B01D100F0A1FC8022591CA8
S2140043E05200A1502922E25482235B00E254FDF7DA
S2140043F0A7FF80235B00C358FF2B01D100F059FCB8
S2140044005A1C80277F00E2512822E25482235B0058
S214004410E254201C321D699901F0FCFBE359FF2B86
S21400442001D100F032FC5A1C80214900625029223A
S214004430E25482235B00E254FEF712FE86235B0002
S214004440E258842300205B00A0558046E358311CC8
S214004450201C9847902342465B00E251E258002613
S2140044600132E250FEF7E6FE6A68201C699900F009
S21400447047FDFDF765FFC046849D0100989B01003F
S2140044806C9B0100309D0100F49C0100289D0100FA
S2140044902C9D010014A001006E68AF68F719BE429B
S2140044A001D3FDF74DFF80235B00984682235B0017
S2140044B000259946AA460EE040462358FF2B34D0E6
S2140044C05A1C404649462250E55465540136B742C8
S2140044D001D8FDF735FFBB1B3578032BECDD5F2DD0
S2140044E0EAD173785F2BE7D1B2781D1C552AE3D149
S2140044F0F01C83468742DFD9002108E0131C09011F
S214004500591801239B44BB4501D100F0A3FC5A4631
S21400451013781A1C303AD0B20928EFD91A1C413A3F
S214004520052A00D946E2373BE9E75146E15486239F
S2140045305B00E25884235B00E358201CFF21984769
S21400454090235B00E2580132E25001220023B8E7D4
S2140045500022C25486235B00C25884235B00C358E3
S214004560FF21984790235B00E25801210132E25078
S2140045700023FEF76BFA0022E25486235B00E25823
S21400458084235B00E358FF21201C984790235B00A0
S214004590E25801210132E2500023F3E40022C25423
S2140045A086235B00C25884235B00C358FF219847CC
S2140045B090235B00E25801210132E2500023FEF70F
S2140045C04CFF0022E25486235B00E25884235B0003
S2140045D0E358FF21201C984790235B00E2580121F6
S2140045E00132E25000234CE40022E25486235B00B2
S2140045F0E25884235B00E358FF21201C9847902351
S2140046005B00E25801210132E250002324E48422B8
S2140046105200EC4D80230D20924686225B00401906
S2140046205200E358814693460BE01A1C013380275C
S2140046307F00E351A654822252000135A6544D4510
S21400464028D02E78FF2BF0D100215A46E154A258EC
S2140046505346E358201CFF216092984790235B0046
S214004660E2580132E25001230022E0E70022E25441
S21400467086235B00E25884235B00E358FF21201C5E
S214004680984790235B00E25801210132E250002354
S214004690FFF735FB4546AA6870AE0132CA49301CA2
S2140046A00EF0E2FD301C0EF00DFEE35900282CD073
S2140046B0842252009246862252009346321C0025DF
S2140046C0061C91460BE01A1C0133802149006350FA
S2140046D0A754822252000135A754B54215D0484649
S2140046E0475DFF2BEFD100215A46E154A2585346AE
S2140046F0E358201CFF215E92984790235B00E25807
S2140047000132E25001230022DFE784225200AF4D3F
S2140047109246862200265200EF1CB34691460BE0D6
S2140047201A1C0133802149006350A654822252008D
S2140047300135A654BD4217D02E78FF2BF0D149463E
S21400474052466158A2585C915B925846E0545C9A77
S2140047505B9B201CFF21984790235B00E2580132A8
S214004760E25001230022DDE746467568A846FFF7BB
S2140047709EF90022E25486235B00E25884235B0005
S214004780E358FF21201C984790235B00E258012144
S2140047900132E2500023FEF731FD0022E254862368
S2140047A05B00E25884235B00E358201CFF219847F7
S2140047B090235B00E2580132E25001220023FEF70C
S2140047C00AFD0022E25486235B00E25884235B0045
S2140047D0E358FF21201C984790235B00E2580121F4
S2140047E00132E2500023FFF7DCFA8C235C460122FC
S2140047F05B00E250FDF7A4FD0022E25486235B0036
S214004800E25884235B00E358FF21201C984790233E
S2140048105B00E25801210132E2500023FEF7E2FA83
S2140048200022E25486235B00E25884235B00E358B0
S214004830FF21201C984790235B00E258012101329B
S214004840E2500023FEF7B4FA729388238A275B00AF
S2140048507F00E358E05970AE6999E6517393602380
S214004860994370906A68201C719500F049FB709916
S214004870B368E151002B01D0FDF762FD201C20211A
S214004880FBF7E6FFFEF7C6FE0022E25486235B0037
S214004890E25884235B00E358FF21201C98479023AE
S2140048A05B00E25841460132E2500123E3512923DE
S2140048B0237063542B783C2B01D0FEF753FE012265
S2140048C08023511C5B00E1502D23A354822252000A
S2140048D0A354FEF747FE0022E25486235B00E2580C
S2140048E084235B00E358201CFF21984790235B003D
S2140048F0E2580132E25001220023FEF715FE201C8A
S21400490069992A1C00F0FCFAFDF71AFDAF683A78A0
S214004910002A01D0FEF700FE3C2B00D1B6E2201C98
S21400492069993A1C00F0ECFA062E01D9FDF708FD4D
S214004930274BB6009B599F46201C2649FDF788FC4E
S214004940FDF7FEFC201C2449FDF782FCFDF7F8FC71
S214004950201C2249FDF77CFCFDF7F2FC201C6C2194
S214004960FBF776FFFDF7ECFC201C7521FBF770FFCC
S214004970FDF7E6FC011D201CFCF78AF8002813D082
S21400498003782F2B01D0FEF79EFE8E235B00E358A4
S21400499006E08068013B002806D002782F2A03D163
S2140049A0002BF6DC00D16AE201228C239340E25011
S2140049B0FDF7C6FC1A1C613A052A00D96BE2573B84
S2140049C09DE5C046889B0100989B01009C9B0100CA
S2140049D030730100489D0100449D0100409D010088
S2140049E00023A35486235B00E25884235B00E3582D
S2140049F0201CFF21984790235B00E2580132E250CA
S214004A0001230022FEF760FC8C2301225B00E250AB
S214004A10FDF796FC80235B00E358FF2B00D1D7E11F
S214004A2080265A1C7600A2515B22E25482235B0049
S214004A30E254AA68201C699900F062FAA359FF2B79
S214004A4000D1B3E18022591C5200A1505D22E254ED
S214004A5082235B00E254FDF773FCFF2A00D02FE7A9
S214004A60862300275B00A754E25884235B00E358A4
S214004A70201CFF21984790235B00E2580132E25049
S214004A803A1C1DE74346E258FF2A00D1B2E18021D6
S214004A90531C490063502021A15482225200A15485
S214004AA0FEF79BF980235B00E258FF2A00D1D4E191
S214004AB08021531C490063502021A15482225200B9
S214004AC0A154FEF770F90978081C6338012804D948
S214004AD07239012901D9FFF780FB201C699901F082
S214004AE077F9201C3C21FBF7B3FEAB68201C5A6804
S214004AF0699900F005FA201CF449FDF7A9FBAB689C
S214004B00201C69999A6800F0FBF9201C2921FBF704
S214004B109FFEFDF715FC8A235B005D46E550FDF71A
S214004B200FFC201C6999AA6800F0EAF98A235B004A
S214004B304746E750B368002B01D0FDF701FC43461B
S214004B40FEF781FE0022E25486235B00E2588423AF
S214004B505B00E358FF21201C984790235B00E25837
S214004B6001210132E2500023FEF792FF0022E254B8
S214004B7086235B00E25884235B00E358FF21201C59
S214004B80984790235B00E25801210132E25000234F
S214004B90FFF70BFB7068CE4906220EF09AFB002842
S214004BA001D0FEF7F1F8201C6999AA6800F0A8F970
S214004BB0201CC849FDF74CFBFEF71CF9201C5B21A6
S214004BC0FBF746FEAB68201C69999A6800F098F9D6
S214004BD0201C5D21FBF73CFEFFF730FB996801299E
S214004BE001D0FFF7FFFA5B681B783E2B01D0FFF77A
S214004BF0F9FA201C2821FBF72BFE6A68AF68FFF73E
S214004C00F1FA201C6999424601F0E2F8FFF710FB22
S214004C1097683B78292B03D001218C238B40E150E9
S214004C205268201C699901F025F9FFF7EDFA201C5F
S214004C306999321C01F01EF9201C6999424601F060
S214004C40C7F83A1C201C699901F014F9201CA249E7
S214004C50FDF7FEFA201C69992A1C01F00BF9FDF7F6
S214004C606FFB0022E25486235B00E25884235B003D
S214004C70E358201CFF21984790235B00E25801323E
S214004C80E25001220023FFF726FB0022E25486238F
S214004C905B00E25884235B00E358201CFF21984702
S214004CA090235B00E2580132E25001220023FFF716
S214004CB0BBFB0022C25486235B00C25884235B00E1
S214004CC0C358FF21984790235B00E2580132E25018
S214004CD001220023FFF795FB201C69996A6801F002
S214004CE0C9F8201C7D49FDF7B3FAFDF729FB6B6870
S214004CF01A78012A01D0FFF73FFBA8680278292A14
S214004D0001D0FFF739FB1D1CFFF736FB63466E9399
S214004D1088235B006EA8E0506F97FDF71FFF002505
S214004D20E55486235B00E25884235B00E358201C8E
S214004D30FF21984790235B00E2580132E2502B1C7B
S214004D40FFF74CFBE05486235B00E25884235B00AD
S214004D50E358201CFF21984790235B00E25801325D
S214004D60E2500023FFF727FB88236E9A5B00E25091
S214004D70FDF7FEFE6C9C01228C239340E250FDF76B
S214004D80DFFA0023FDF7BFFA3B2B01D0FEF7C4FB8A
S214004D9053681B78302B00D192E0312B01D0FEF700
S214004DA0BBFB4F49FDF754FAFDF7CAFA0025E55458
S214004DB086235B00E25884235B00E358201CFF2117
S214004DC0984790235B00E2580132E2502B1C39E6EC
S214004DD00026E65486235B00E25884235B00E358F3
S214004DE0201CFF21984790235B00E2580132E250D6
S214004DF0331C15E6862300255B00A554E258842361
S214004E005B00E358201CFF21984790235B00E25884
S214004E100132E2502A1C3AE6A35486235B00E2588D
S214004E2084235B00E358201CFF21984790235B00F7
S214004E30E2580132E2500022FDF7BDFE6A68201CEF
S214004E40699901F017F8201C6999321C00F0C0FF20
S214004E50FDF776FA5F25FFF72FFB862300265B001B
S214004E60A654E25884235B00E358201CFF21984791
S214004E7090235B00E2580132E250321C18E640688C
S214004E80002800D190E50378FEF71DFC2D21FBF7E6
S214004E90DFFCAF6843E55F255F4501D8FFF70CFBF5
S214004EA0AB4201D0FFF708FB1D1CFF2901D9FFF715
S214004EB003FBC9B2201CFBF7CBFC5E46FFF706FBE4
S214004EC00849FDF7C5F9FDF73BFAC046F89D010015
S214004ED0A09B0100A89B0100349D0100789D010065
S214004EE0549D01004C9D0100002B01D0FFF7D2F924
S214004EF05268002A01D0FDF72AFFFFF7CBF9C0461B
S214004F0008B5002A07D08C235B00C358002B01D1BC
S214004F10FDF7E2F908BD8C2301225B00C250F9E7D9
S214004F20F0B556464D4644465F46F0B4137891B009
S214004F30033BDBB2041C8946161C2A2B00D936E23A
S214004F40D84A9B00D3589F46D74D0A225219802331
S214004F50924684225B005200C35893460DE0191C0B
S214004F60013380225200A35090468222520001351F
S214004F706754A754554500D125E22F78FF2BEED174
S214004F800022E25486235A46A2585B00E358009259
S214004F9001931A1CFF21009B201C984790235B005E
S214004FA0E25800210132E2500123DAE77268002A53
S214004FB000D113E18C235B00E358002B00D123E2E1
S214004FC011B03CBC90469946A246AB46F0BD0022C6
S214004FD0924684225200B54D8023914686225B007D
S214004FE02F1C5200C358093790460BE0191C01339A
S214004FF080225200A3508222520001356654A654E5
S214005000BD42DDD02E78FF2BF0D15246E2544A4600
S214005010A2584346E3580E920F931A1CFF210E9B8C
S214005020201C984790235B00E25800210132E25092
S2140050300123DDE700229246842252009C4D802305
S214005040914686225B002F1C5200C35809379046B3
S2140050500BE0191C013380225200A350822252001A
S21400506001356654A654BD42AAD02E78FF2BF0D147
S2140050705246E2544A46A2584346E3580C920D93D1
S2140050801A1CFF210C9B201C984790235B00E258BB
S21400509000210132E2500123DDE7002292468422FD
S2140050A052008023834D914686225B005200C358EF
S2140050B0AF1D90460CE0191C013380225200A3500D
S2140050C08222520001356654A654BD4200D177E7CD
S2140050D02E78FF2BEFD15246E2544A46A25843465A
S2140050E0E3580A920B931A1CFF210A9B201C984730
S2140050F090235B00E25800210132E2500123DCE7F6
S21400510080235B00C258FF2A00D195E1531C802102
S214005110490063502021A15482225200A154FF2B43
S21400512000D176E1591C80225200A1502622E2547A
S21400513082235B00E25443E780235B00C258FF2AC9
S21400514000D19DE1531C8021490063502021A154C9
S21400515082225200A1540022924684225200564DCA
S214005160914686225200AF1C90460CE0191C013373
S21400517080225200A3508222520001356654A65463
S214005180BD4200D11CE72E78FF2BEFD15246E254E9
S2140051904A46A2584346E358089209931A1CFF2130
S2140051A0089B201C984790235B00E25800210132A0
S2140051B0E2500123DCE780235B00C358FF2B00D1BD
S2140051C04CE1591C80225200A1502022E254822336
S2140051D05B00E254B268002A00D0EBE68C23012282
S2140051E05B00E250ECE604230B4000D0E8E68022A9
S2140051F052008258FF2A00D183E1511C80235B00B5
S214005200E1502A23A35482225200A354D8E68023D6
S2140052105B00C35883E780235B00C3589BE70022EC
S214005220924684225200254D8023914686225B00BA
S2140052302F1C5200C358083790460CE0191C013347
S21400524080225200A3508222520001356654A65492
S214005250BD4200D1B4E62E78FF2BEFD15246E25481
S2140052604A46A2584346E358069207931A1CFF2163
S214005270069B201C984790235B00E25800210132D1
S214005280E2500123DCE700229246842252000C4DB5
S2140052908023914686225B002F1C5200C3580A3793
S2140052A090461CE04C7301003C9E0100FC9D0100F2
S2140052B0089E0100149E01001C9E0100209E010015
S2140052C02C9E0100191C013380225200A35082221A
S2140052D0520001356654A654BD4200D170E62E78C1
S2140052E0FF2BEFD15246E2544A46A2584346E358B3
S2140052F0049205931A1CFF21049B201C98479023B8
S2140053005B00E25800210132E2500123DCE78223F1
S2140053105B00C35C282B0ED080235B00C358FF2B9A
S21400532000D1DCE0591C80225200A1502022E25419
S21400533082235B00E2547268002A00D1C5E08C2309
S2140053405B00E358002B5AD000229246842252007B
S2140053508023744D914686225B005200E358EF1C72
S21400536090460CE0191C013380225200A350822282
S214005370520001356654A654BD4200D120E62E7870
S214005380FF2BEFD15246E2544A46A2584346E35812
S214005390029203931A1CFF21029B201C984790231D
S2140053A05B00E25800210132E2500123DCE78C2347
S2140053B05B00E358002B00D002E6201C4946321C56
S2140053C0FCF78AFFFCE57268002A00D182E08C2197
S2140053D04900615800290BD0FF2B63D0591C80224E
S2140053E05200A1502922E25482235B00E254E7E5F2
S2140053F0201C4946FCF770FF4246A358ECE7201CE9
S2140054004946FCF769FF9FE7201C4946FCF764FF06
S214005410D6E50022E25486235B00E25884235B0034
S214005420E358FF21201C984790235B00E258012197
S2140054300132E250002376E60023835486235B0085
S214005440C25884235B00C358FF21984790235B0013
S214005450E2580132E2500123002258E60022C254EC
S21400546086235B00C25884235B00C358FF219847FD
S21400547090235B00E25801210132E2500023A1E6AE
S2140054800023835486235B00C25884235B00C358E2
S214005490FF21984790235B00E2580132E250012337
S2140054A0002250E60022E25486235B00E258842362
S2140054B05B00E358FF21201C984790235B00E258CE
S2140054C001210132E250002389E78C2301225B0090
S2140054D0E25039E78C2201215200A1507CE70022DD
S2140054E0C25486235B00C25884235B00C358FF2146
S2140054F0984790235B00E25801210132E2500023D6
S21400550011E7835486235B00C25884235B00C3588C
S214005510FF21984790235B00E25801210132E250B8
S21400552000226BE6389E0100F0B54D465F464446C5
S2140055305646F0B48B4691B0051C141C994641D0D3
S2140055408C277F00C15900293CD10122882692462B
S21400555076001DE062681378191C1C39042911D9DD
S2140055605146A160A9598846E168A951292B1FD048
S2140055702A2B2ED0022B37D0281C5946FFF7D0FCFA
S2140055804246AA512468002C1CD0EB59002B19D196
S214005590A1680029F6D14A46002ADBD06268514647
S2140055A01378A160A9598846E168A951292BDFD153
S2140055B008322368281C594600F016FA882243460B
S2140055C05200AB5011B03CBC90469946A246AB4642
S2140055D0F0BD043259462368281C00F01BF98821C8
S2140055E0424649006A50EDE78A2676000027AB5906
S2140055F0AF5152685946281C9946FFF781FC802314
S21400560049465B005A46A951EB5852072BD47D4EAB
S2140056108422B11C5200894692460BE01A1C0133C4
S214005620802149006B50AF54822252000136AF549D
S2140056304E4523D03778FF2BF0D10022EA5451464E
S214005640862369585B00EB5806911A1C0793281CA2
S214005650069BFF21984790235B00EA580132EA50E8
S21400566001230022DCE7FF2B1DD0591C80225200AC
S214005670A9502E22EA5482235B00EA5463689E688F
S2140056803378452B02D120E0766833781C3B042B18
S214005690FAD95946281C321CFFF732FC88235B00D7
S2140056A04146E9508EE7EF5486235B00EA58842390
S2140056B05B00EB58FF21281C984790235B00EA58B4
S2140056C001210132EA500023D0E74F4C80230D2100
S2140056D05B000919EB588A460CE0191C013380223E
S2140056E05200AB5091468222520001346F54AF54A0
S2140056F0544519D02778FF2BEFD100228421EA5495
S2140057004900862369585B00EB5804911A1C0593E0
S214005710FF21049B281C984790235B00EA58002131
S2140057200132EA500123DAE7B2683849013209A8A3
S2140057300DF09AFD09A80DF0C5FD824600285DD043
S2140057404A46AB5884225200914652460027B2463B
S214005750161C0BE0191C013380225200AB5082222B
S214005760520001376C54AC54B74219D009A9CC5D2D
S214005770FF2BEFD10022EA544946862369585B0086
S214005780EB5802911A1C0393FF21029B281C984792
S21400579090235B00EA5800210132EA500123DBE740
S2140057A056461B4C8422E11C5200894692460CE069
S2140057B0191C013380225200AB5082225200013461
S2140057C06F54AF544C4500D15EE72778FF2BEFD1DE
S2140057D00022EA545146862369585B00EB58009134
S2140057E01A1C0193FF21009B281C984790235B00FE
S2140057F0EA5800210132EA500123DBE749466B589C
S214005800CFE7C046849B0100889B0100989B01005F
S2140058109C9B0100F0B544465F4656464D46F0B4A4
S2140058208A4683B0041C93469846002B0BD0996892
S21400583000293FD01B68002BF9D1201C5146424658
S2140058400023FFF771FE80235B00E358FF2B00D197
S21400585072E05A1C8021490062502021E1548223C4
S2140058605B00E154FF2A00D19FE0531C80255B219A
S2140058706D006351A15482225200A15459460A6811
S214005880002A04D0201C5146FFF73AFB6359FF2B31
S21400589000D177E0591C80225200A1505D22E254CC
S2140058A082235B00E25403B03CBC90469946A24675
S2140058B0AB46F0BD5B681B782A2B00D188E0494DCB
S2140058C080235B00AA1CE35891460BE01A1C0133A8
S2140058D080277F00E351A654822252000135A65449
S2140058E04D4516D02E78FF2BF0D100218622E154AC
S2140058F052008423A2585B00E358201CFF2101922B
S214005900984790235B00E2580132E25001230022C0
S214005910DEE74246201C51460023FFF705FEE2590B
S214005920FF2A1CD0531C8021490063502921A15412
S21400593082225200A15489E70022E25486235B00AB
S214005940E25884235B00E358201CFF2198479023ED
S2140059505B00E2580132E250012200237AE700237E
S214005960A35486235B00E25884235B00E358201C84
S214005970FF21984790235B00E2580132E250012352
S2140059800022D0E70022E25486235B00E2588423FC
S2140059905B00E358FF21201C984790235B00E258E9
S2140059A001210132E250002375E70023A354862329
S2140059B05B00E25884235B00E358201CFF219847D5
S2140059C090235B00E2580132E250012300224DE7AB
S2140059D042460023201C5146FFF7A6FD80235B00AD
S2140059E0E2583FE7749D0100F0B54E4657464546DF
S2140059F0E0B48846061C91461F1E46D098680028CC
S214005A0043D1E0211C1C0122814B090108E0084219
S214005A1000D090E02468002C37D0A068002834D14D
S214005A2060680578193DEDB2122DF3D8101CA84019
S214005A301842ECD082235B00F35C202B00D183E07D
S214005A4080235B00F258FF2A00D1CDE0531C802152
S214005A50490073502021B15482225200B154FF2BCA
S214005A6000D077E00022F25486235B00F2588423AD
S214005A705B00F358301CFF21984790235B00F258D8
S214005A800132F2500122002365E08A235B000022E7
S214005A90F458301CF25041463A1C0023FFF744FDF0
S214005AA080235B00F258FF2A00D177E0531C802544
S214005AB028216D007351B15482225200B1544946D8
S214005AC00A68002A04D08C2149007158002918D091
S214005AD0FF2B1DD0591C80225200B1502922F254AF
S214005AE082235B00F254301C41463A1C0123FFF728
S214005AF01BFD8A235B00F4501CBC90469946A246C8
S214005B00F0BD301C4146FCF7E7FB7359FF2BE1D193
S214005B100022F25486235B00F25884235B00F3587D
S214005B20FF21301C984790235B00F2580121013278
S214005B30F2500023CFE782235B00F35C0222181C9E
S214005B409043282800D078E780235B00F358FF2B8B
S214005B5000D187E75A1C80256D0072512822F25426
S214005B6082235B00F2548A235B000021F4588A46A5
S214005B70F150301C002341463A1CFFF7D5FC735900
S214005B80FF2B1ED05A1C8021490072502921F15447
S214005B9082235B00F154FF2A00D087E70023B3542A
S214005BA086235B00F25884235B00F358301CFF21E9
S214005BB0984790235B00F2580132F25001230022EE
S214005BC075E75046F05486235B00F25884235B004A
S214005BD0F358301CFF21984790235B00F25801329F
S214005BE0F25001220023CEE70023B35486235B0045
S214005BF0F25884235B00F358301CFF21984790230B
